{
  "_format": "hh-sol-artifact-1",
  "contractName": "MerkleAirdrop",
  "sourceName": "contracts/MerkleAirdrop.sol",
  "abi": [
    {
      "inputs": [
        {
          "internalType": "address",
          "name": "_token",
          "type": "address"
        },
        {
          "internalType": "bytes32",
          "name": "_merkleRoot",
          "type": "bytes32"
        }
      ],
      "stateMutability": "nonpayable",
      "type": "constructor"
    },
    {
      "inputs": [],
      "name": "AmountMustBeGreaterThanZero",
      "type": "error"
    },
    {
      "inputs": [
        {
          "internalType": "uint256",
          "name": "claimed",
          "type": "uint256"
        },
        {
          "internalType": "uint256",
          "name": "attempting",
          "type": "uint256"
        },
        {
          "internalType": "uint256",
          "name": "total",
          "type": "uint256"
        }
      ],
      "name": "ClaimExceedsAssignedTokens",
      "type": "error"
    },
    {
      "inputs": [],
      "name": "ContractPaused",
      "type": "error"
    },
    {
      "inputs": [],
      "name": "EnforcedPause",
      "type": "error"
    },
    {
      "inputs": [],
      "name": "ExpectedPause",
      "type": "error"
    },
    {
      "inputs": [],
      "name": "InvalidProof",
      "type": "error"
    },
    {
      "inputs": [],
      "name": "NotAdmin",
      "type": "error"
    },
    {
      "inputs": [
        {
          "internalType": "address",
          "name": "owner",
          "type": "address"
        }
      ],
      "name": "OwnableInvalidOwner",
      "type": "error"
    },
    {
      "inputs": [
        {
          "internalType": "address",
          "name": "account",
          "type": "address"
        }
      ],
      "name": "OwnableUnauthorizedAccount",
      "type": "error"
    },
    {
      "inputs": [
        {
          "internalType": "string",
          "name": "reason",
          "type": "string"
        }
      ],
      "name": "TransferFailed",
      "type": "error"
    },
    {
      "anonymous": false,
      "inputs": [
        {
          "indexed": true,
          "internalType": "address",
          "name": "admin",
          "type": "address"
        }
      ],
      "name": "AdminAdded",
      "type": "event"
    },
    {
      "anonymous": false,
      "inputs": [
        {
          "indexed": true,
          "internalType": "address",
          "name": "admin",
          "type": "address"
        }
      ],
      "name": "AdminRemoved",
      "type": "event"
    },
    {
      "anonymous": false,
      "inputs": [
        {
          "indexed": true,
          "internalType": "address",
          "name": "previousOwner",
          "type": "address"
        },
        {
          "indexed": true,
          "internalType": "address",
          "name": "newOwner",
          "type": "address"
        }
      ],
      "name": "OwnershipTransferred",
      "type": "event"
    },
    {
      "anonymous": false,
      "inputs": [
        {
          "indexed": false,
          "internalType": "address",
          "name": "account",
          "type": "address"
        }
      ],
      "name": "Paused",
      "type": "event"
    },
    {
      "anonymous": false,
      "inputs": [
        {
          "indexed": true,
          "internalType": "address",
          "name": "claimant",
          "type": "address"
        },
        {
          "indexed": false,
          "internalType": "uint256",
          "name": "amount",
          "type": "uint256"
        }
      ],
      "name": "TokensClaimed",
      "type": "event"
    },
    {
      "anonymous": false,
      "inputs": [
        {
          "indexed": false,
          "internalType": "address",
          "name": "account",
          "type": "address"
        }
      ],
      "name": "Unpaused",
      "type": "event"
    },
    {
      "inputs": [
        {
          "internalType": "address",
          "name": "newAdmin",
          "type": "address"
        }
      ],
      "name": "addAdmin",
      "outputs": [],
      "stateMutability": "nonpayable",
      "type": "function"
    },
    {
      "inputs": [
        {
          "internalType": "address",
          "name": "",
          "type": "address"
        }
      ],
      "name": "admins",
      "outputs": [
        {
          "internalType": "bool",
          "name": "",
          "type": "bool"
        }
      ],
      "stateMutability": "view",
      "type": "function"
    },
    {
      "inputs": [
        {
          "internalType": "uint256",
          "name": "totalAssigned",
          "type": "uint256"
        },
        {
          "internalType": "uint256",
          "name": "amountToMint",
          "type": "uint256"
        },
        {
          "internalType": "bytes32[]",
          "name": "proof",
          "type": "bytes32[]"
        }
      ],
      "name": "claimTokens",
      "outputs": [],
      "stateMutability": "nonpayable",
      "type": "function"
    },
    {
      "inputs": [
        {
          "internalType": "address",
          "name": "",
          "type": "address"
        }
      ],
      "name": "claimedAmounts",
      "outputs": [
        {
          "internalType": "uint256",
          "name": "",
          "type": "uint256"
        }
      ],
      "stateMutability": "view",
      "type": "function"
    },
    {
      "inputs": [],
      "name": "merkleRoot",
      "outputs": [
        {
          "internalType": "bytes32",
          "name": "",
          "type": "bytes32"
        }
      ],
      "stateMutability": "view",
      "type": "function"
    },
    {
      "inputs": [],
      "name": "owner",
      "outputs": [
        {
          "internalType": "address",
          "name": "",
          "type": "address"
        }
      ],
      "stateMutability": "view",
      "type": "function"
    },
    {
      "inputs": [],
      "name": "pause",
      "outputs": [],
      "stateMutability": "nonpayable",
      "type": "function"
    },
    {
      "inputs": [],
      "name": "paused",
      "outputs": [
        {
          "internalType": "bool",
          "name": "",
          "type": "bool"
        }
      ],
      "stateMutability": "view",
      "type": "function"
    },
    {
      "inputs": [
        {
          "internalType": "address",
          "name": "adminToRemove",
          "type": "address"
        }
      ],
      "name": "removeAdmin",
      "outputs": [],
      "stateMutability": "nonpayable",
      "type": "function"
    },
    {
      "inputs": [],
      "name": "renounceOwnership",
      "outputs": [],
      "stateMutability": "nonpayable",
      "type": "function"
    },
    {
      "inputs": [],
      "name": "token",
      "outputs": [
        {
          "internalType": "address",
          "name": "",
          "type": "address"
        }
      ],
      "stateMutability": "view",
      "type": "function"
    },
    {
      "inputs": [
        {
          "internalType": "address",
          "name": "newOwner",
          "type": "address"
        }
      ],
      "name": "transferOwnership",
      "outputs": [],
      "stateMutability": "nonpayable",
      "type": "function"
    },
    {
      "inputs": [],
      "name": "unpause",
      "outputs": [],
      "stateMutability": "nonpayable",
      "type": "function"
    },
    {
      "inputs": [
        {
          "internalType": "bytes32[]",
          "name": "proof",
          "type": "bytes32[]"
        },
        {
          "internalType": "address",
          "name": "user",
          "type": "address"
        },
        {
          "internalType": "uint256",
          "name": "totalAssigned",
          "type": "uint256"
        }
      ],
      "name": "verify",
      "outputs": [
        {
          "internalType": "bool",
          "name": "",
          "type": "bool"
        }
      ],
      "stateMutability": "view",
      "type": "function"
    }
  ],
  "bytecode": "0x60c06040523480156200001157600080fd5b5060405162002132380380620021328339818101604052810190620000379190620002df565b3360008060006101000a81548160ff021916908315150217905550600073ffffffffffffffffffffffffffffffffffffffff168173ffffffffffffffffffffffffffffffffffffffff1603620000c75760006040517f1e4fbdf7000000000000000000000000000000000000000000000000000000008152600401620000be919062000337565b60405180910390fd5b620000d8816200017560201b60201c565b508173ffffffffffffffffffffffffffffffffffffffff1660808173ffffffffffffffffffffffffffffffffffffffff16815250508060a081815250506001600260003373ffffffffffffffffffffffffffffffffffffffff1673ffffffffffffffffffffffffffffffffffffffff16815260200190815260200160002060006101000a81548160ff021916908315150217905550505062000354565b60008060019054906101000a900473ffffffffffffffffffffffffffffffffffffffff16905081600060016101000a81548173ffffffffffffffffffffffffffffffffffffffff021916908373ffffffffffffffffffffffffffffffffffffffff1602179055508173ffffffffffffffffffffffffffffffffffffffff168173ffffffffffffffffffffffffffffffffffffffff167f8be0079c531659141344cd1fd0a4f28419497f9722a3daafe3b4186f6b6457e060405160405180910390a35050565b600080fd5b600073ffffffffffffffffffffffffffffffffffffffff82169050919050565b60006200026c826200023f565b9050919050565b6200027e816200025f565b81146200028a57600080fd5b50565b6000815190506200029e8162000273565b92915050565b6000819050919050565b620002b981620002a4565b8114620002c557600080fd5b50565b600081519050620002d981620002ae565b92915050565b60008060408385031215620002f957620002f86200023a565b5b600062000309858286016200028d565b92505060206200031c85828601620002c8565b9150509250929050565b62000331816200025f565b82525050565b60006020820190506200034e600083018462000326565b92915050565b60805160a051611da36200038f600039600081816102df01526103b60152600081816108b001528181610a960152610e5b0152611da36000f3fe608060405234801561001057600080fd5b50600436106100ea5760003560e01c806371417b321161008c5780638da5cb5b116100665780638da5cb5b14610211578063b69d1a081461022f578063f2fde38b1461024b578063fc0c546a14610267576100ea565b806371417b32146101cd578063715018a6146101fd5780638456cb5914610207576100ea565b80633f4ba83a116100c85780633f4ba83a14610159578063429b62e5146101635780635c975abb1461019357806370480275146101b1576100ea565b806304b38ce0146100ef5780631785f53c1461011f5780632eb4a7ab1461013b575b600080fd5b610109600480360381019061010491906116b6565b610285565b6040516101169190611740565b60405180910390f35b6101396004803603810190610134919061175b565b61030e565b005b6101436103b4565b6040516101509190611797565b60405180910390f35b6101616103d8565b005b61017d6004803603810190610178919061175b565b610465565b60405161018a9190611740565b60405180910390f35b61019b610485565b6040516101a89190611740565b60405180910390f35b6101cb60048036038101906101c6919061175b565b61049b565b005b6101e760048036038101906101e2919061175b565b610541565b6040516101f491906117c1565b60405180910390f35b610205610559565b005b61020f61056d565b005b6102196105fa565b60405161022691906117eb565b60405180910390f35b61024960048036038101906102449190611806565b610623565b005b6102656004803603810190610260919061175b565b610dd3565b005b61026f610e59565b60405161027c91906117eb565b60405180910390f35b600080838360405160200161029b929190611875565b604051602081830303815290604052805190602001206040516020016102c191906118bf565b604051602081830303815290604052805190602001209050610304857f000000000000000000000000000000000000000000000000000000000000000083610e7d565b9150509392505050565b610316610e94565b6000600260008373ffffffffffffffffffffffffffffffffffffffff1673ffffffffffffffffffffffffffffffffffffffff16815260200190815260200160002060006101000a81548160ff0219169083151502179055508073ffffffffffffffffffffffffffffffffffffffff167fa3b62bc36326052d97ea62d63c3d60308ed4c3ea8ac079dd8499f1e9c4f80c0f60405160405180910390a250565b7f000000000000000000000000000000000000000000000000000000000000000081565b600260003373ffffffffffffffffffffffffffffffffffffffff1673ffffffffffffffffffffffffffffffffffffffff16815260200190815260200160002060009054906101000a900460ff1661045b576040517f7bfa4b9f00000000000000000000000000000000000000000000000000000000815260040160405180910390fd5b610463610f1b565b565b60026020528060005260406000206000915054906101000a900460ff1681565b60008060009054906101000a900460ff16905090565b6104a3610e94565b6001600260008373ffffffffffffffffffffffffffffffffffffffff1673ffffffffffffffffffffffffffffffffffffffff16815260200190815260200160002060006101000a81548160ff0219169083151502179055508073ffffffffffffffffffffffffffffffffffffffff167f44d6d25963f097ad14f29f06854a01f575648a1ef82f30e562ccd3889717e33960405160405180910390a250565b60016020528060005260406000206000915090505481565b610561610e94565b61056b6000610f7d565b565b600260003373ffffffffffffffffffffffffffffffffffffffff1673ffffffffffffffffffffffffffffffffffffffff16815260200190815260200160002060009054906101000a900460ff166105f0576040517f7bfa4b9f00000000000000000000000000000000000000000000000000000000815260040160405180910390fd5b6105f8611042565b565b60008060019054906101000a900473ffffffffffffffffffffffffffffffffffffffff16905090565b61062b610485565b15610662576040517fab35696f00000000000000000000000000000000000000000000000000000000815260040160405180910390fd5b6000820361069c576040517f5e85ae7300000000000000000000000000000000000000000000000000000000815260040160405180910390fd5b6106a7813385610285565b6106dd576040517f09bde33900000000000000000000000000000000000000000000000000000000815260040160405180910390fd5b6000600160003373ffffffffffffffffffffffffffffffffffffffff1673ffffffffffffffffffffffffffffffffffffffff1681526020019081526020016000205490506107606040518060400160405280601081526020017f616c7265616479436c61696d65643a2000000000000000000000000000000000815250826110a4565b61079f6040518060400160405280600f81526020017f746f74616c41737369676e65643a200000000000000000000000000000000000815250856110a4565b6107de6040518060400160405280600e81526020017f616d6f756e74546f4d696e743a20000000000000000000000000000000000000815250846110a4565b8383826107eb9190611909565b11156108705761082f6040518060400160405280600981526020017f526576657274696e670000000000000000000000000000000000000000000000815250611140565b8083856040517feae9665d0000000000000000000000000000000000000000000000000000000081526004016108679392919061193d565b60405180910390fd5b6108ae6040518060400160405280600d81526020017f41626f757420746f206d696e7400000000000000000000000000000000000000815250611140565b7f000000000000000000000000000000000000000000000000000000000000000073ffffffffffffffffffffffffffffffffffffffff166340c10f1930856040518363ffffffff1660e01b8152600401610909929190611875565b600060405180830381600087803b15801561092357600080fd5b505af1925050508015610934575060015b610a7257610940611981565b806308c379a0036109fa57506109546119a3565b8061095f57506109fc565b61099e6040518060400160405280601b81526020017f4d696e74696e67206661696c6564207769746820726561736f6e3a0000000000815250826111d9565b806040516020016109af9190611af0565b6040516020818303038152906040526040517f12dfddb30000000000000000000000000000000000000000000000000000000081526004016109f19190611b5c565b60405180910390fd5b505b3d8060008114610a28576040519150601f19603f3d011682016040523d82523d6000602084013e610a2d565b606091505b50610a6c6040518060400160405280601d81526020017f4d696e74696e67206661696c65642077697468206e6f20726561736f6e000000815250611140565b50610a94565b610a93604051806060016040528060278152602001611d4760279139611140565b5b7f000000000000000000000000000000000000000000000000000000000000000073ffffffffffffffffffffffffffffffffffffffff1663a9059cbb33856040518363ffffffff1660e01b8152600401610aef929190611875565b6020604051808303816000875af1925050508015610b2b57506040513d601f19601f82011682018060405250810190610b289190611baa565b60015b610c6957610b37611981565b806308c379a003610bf15750610b4b6119a3565b80610b565750610bf3565b610b956040518060400160405280601b81526020017f4d696e74696e67206661696c6564207769746820726561736f6e3a0000000000815250826111d9565b80604051602001610ba69190611af0565b6040516020818303038152906040526040517f12dfddb3000000000000000000000000000000000000000000000000000000008152600401610be89190611b5c565b60405180910390fd5b505b3d8060008114610c1f576040519150601f19603f3d011682016040523d82523d6000602084013e610c24565b606091505b50610c636040518060400160405280601d81526020017f4d696e74696e67206661696c65642077697468206e6f20726561736f6e000000815250611140565b50610ce9565b80610ce757610cac6040518060400160405280601781526020017f5472616e736665722072657475726e65642066616c7365000000000000000000815250611140565b6040517f12dfddb3000000000000000000000000000000000000000000000000000000008152600401610cde90611c23565b60405180910390fd5b505b610d296040518060400160405280601581526020017f5472616e7366657272656420746f6b656e7320746f00000000000000000000008152503385611275565b82600160003373ffffffffffffffffffffffffffffffffffffffff1673ffffffffffffffffffffffffffffffffffffffff1681526020019081526020016000206000828254610d789190611909565b925050819055503373ffffffffffffffffffffffffffffffffffffffff167f896e034966eaaf1adc54acc0f257056febbd300c9e47182cf761982cf1f5e43084604051610dc591906117c1565b60405180910390a250505050565b610ddb610e94565b600073ffffffffffffffffffffffffffffffffffffffff168173ffffffffffffffffffffffffffffffffffffffff1603610e4d5760006040517f1e4fbdf7000000000000000000000000000000000000000000000000000000008152600401610e4491906117eb565b60405180910390fd5b610e5681610f7d565b50565b7f000000000000000000000000000000000000000000000000000000000000000081565b600082610e8a8584611314565b1490509392505050565b610e9c611364565b73ffffffffffffffffffffffffffffffffffffffff16610eba6105fa565b73ffffffffffffffffffffffffffffffffffffffff1614610f1957610edd611364565b6040517f118cdaa7000000000000000000000000000000000000000000000000000000008152600401610f1091906117eb565b60405180910390fd5b565b610f2361136c565b60008060006101000a81548160ff0219169083151502179055507f5db9ee0a495bf2e6ff9c91a7834c1ba4fdd244a5e8aa4e537bd38aeae4b073aa610f66611364565b604051610f7391906117eb565b60405180910390a1565b60008060019054906101000a900473ffffffffffffffffffffffffffffffffffffffff16905081600060016101000a81548173ffffffffffffffffffffffffffffffffffffffff021916908373ffffffffffffffffffffffffffffffffffffffff1602179055508173ffffffffffffffffffffffffffffffffffffffff168173ffffffffffffffffffffffffffffffffffffffff167f8be0079c531659141344cd1fd0a4f28419497f9722a3daafe3b4186f6b6457e060405160405180910390a35050565b61104a6113ac565b60016000806101000a81548160ff0219169083151502179055507f62e78cea01bee320cd4e420270b5ea74000d11b0c9f74754ebdbfc544b05a25861108d611364565b60405161109a91906117eb565b60405180910390a1565b61113c82826040516024016110ba929190611c43565b6040516020818303038152906040527fb60e72cc000000000000000000000000000000000000000000000000000000007bffffffffffffffffffffffffffffffffffffffffffffffffffffffff19166020820180517bffffffffffffffffffffffffffffffffffffffffffffffffffffffff83818316178352505050506113ed565b5050565b6111d6816040516024016111549190611b5c565b6040516020818303038152906040527f41304fac000000000000000000000000000000000000000000000000000000007bffffffffffffffffffffffffffffffffffffffffffffffffffffffff19166020820180517bffffffffffffffffffffffffffffffffffffffffffffffffffffffff83818316178352505050506113ed565b50565b61127182826040516024016111ef929190611c73565b6040516020818303038152906040527f4b5c4277000000000000000000000000000000000000000000000000000000007bffffffffffffffffffffffffffffffffffffffffffffffffffffffff19166020820180517bffffffffffffffffffffffffffffffffffffffffffffffffffffffff83818316178352505050506113ed565b5050565b61130f83838360405160240161128d93929190611caa565b6040516020818303038152906040527f0d26b925000000000000000000000000000000000000000000000000000000007bffffffffffffffffffffffffffffffffffffffffffffffffffffffff19166020820180517bffffffffffffffffffffffffffffffffffffffffffffffffffffffff83818316178352505050506113ed565b505050565b60008082905060005b84518110156113595761134a8286838151811061133d5761133c611ce8565b5b6020026020010151611407565b9150808060010191505061131d565b508091505092915050565b600033905090565b611374610485565b6113aa576040517f8dfc202b00000000000000000000000000000000000000000000000000000000815260040160405180910390fd5b565b6113b4610485565b156113eb576040517fd93c066500000000000000000000000000000000000000000000000000000000815260040160405180910390fd5b565b611404816113fc611432611453565b63ffffffff16565b50565b600081831061141f5761141a828461145e565b61142a565b611429838361145e565b5b905092915050565b60006a636f6e736f6c652e6c6f679050600080835160208501845afa505050565b611475819050919050565b600082600052816020526040600020905092915050565b61147d611d17565b565b6000604051905090565b600080fd5b600080fd5b600080fd5b6000601f19601f8301169050919050565b7f4e487b7100000000000000000000000000000000000000000000000000000000600052604160045260246000fd5b6114e182611498565b810181811067ffffffffffffffff82111715611500576114ff6114a9565b5b80604052505050565b600061151361147f565b905061151f82826114d8565b919050565b600067ffffffffffffffff82111561153f5761153e6114a9565b5b602082029050602081019050919050565b600080fd5b6000819050919050565b61156881611555565b811461157357600080fd5b50565b6000813590506115858161155f565b92915050565b600061159e61159984611524565b611509565b905080838252602082019050602084028301858111156115c1576115c0611550565b5b835b818110156115ea57806115d68882611576565b8452602084019350506020810190506115c3565b5050509392505050565b600082601f83011261160957611608611493565b5b813561161984826020860161158b565b91505092915050565b600073ffffffffffffffffffffffffffffffffffffffff82169050919050565b600061164d82611622565b9050919050565b61165d81611642565b811461166857600080fd5b50565b60008135905061167a81611654565b92915050565b6000819050919050565b61169381611680565b811461169e57600080fd5b50565b6000813590506116b08161168a565b92915050565b6000806000606084860312156116cf576116ce611489565b5b600084013567ffffffffffffffff8111156116ed576116ec61148e565b5b6116f9868287016115f4565b935050602061170a8682870161166b565b925050604061171b868287016116a1565b9150509250925092565b60008115159050919050565b61173a81611725565b82525050565b60006020820190506117556000830184611731565b92915050565b60006020828403121561177157611770611489565b5b600061177f8482850161166b565b91505092915050565b61179181611555565b82525050565b60006020820190506117ac6000830184611788565b92915050565b6117bb81611680565b82525050565b60006020820190506117d660008301846117b2565b92915050565b6117e581611642565b82525050565b600060208201905061180060008301846117dc565b92915050565b60008060006060848603121561181f5761181e611489565b5b600061182d868287016116a1565b935050602061183e868287016116a1565b925050604084013567ffffffffffffffff81111561185f5761185e61148e565b5b61186b868287016115f4565b9150509250925092565b600060408201905061188a60008301856117dc565b61189760208301846117b2565b9392505050565b6000819050919050565b6118b96118b482611555565b61189e565b82525050565b60006118cb82846118a8565b60208201915081905092915050565b7f4e487b7100000000000000000000000000000000000000000000000000000000600052601160045260246000fd5b600061191482611680565b915061191f83611680565b9250828201905080821115611937576119366118da565b5b92915050565b600060608201905061195260008301866117b2565b61195f60208301856117b2565b61196c60408301846117b2565b949350505050565b60008160e01c9050919050565b600060033d11156119a05760046000803e61199d600051611974565b90505b90565b600060443d10611a30576119b561147f565b60043d036004823e80513d602482011167ffffffffffffffff821117156119dd575050611a30565b808201805167ffffffffffffffff8111156119fb5750505050611a30565b80602083010160043d038501811115611a18575050505050611a30565b611a27826020018501866114d8565b82955050505050505b90565b600081905092915050565b7f4d696e74696e67206661696c65643a2000000000000000000000000000000000600082015250565b6000611a74601083611a33565b9150611a7f82611a3e565b601082019050919050565b600081519050919050565b60005b83811015611ab3578082015181840152602081019050611a98565b60008484015250505050565b6000611aca82611a8a565b611ad48185611a33565b9350611ae4818560208601611a95565b80840191505092915050565b6000611afb82611a67565b9150611b078284611abf565b915081905092915050565b600082825260208201905092915050565b6000611b2e82611a8a565b611b388185611b12565b9350611b48818560208601611a95565b611b5181611498565b840191505092915050565b60006020820190508181036000830152611b768184611b23565b905092915050565b611b8781611725565b8114611b9257600080fd5b50565b600081519050611ba481611b7e565b92915050565b600060208284031215611bc057611bbf611489565b5b6000611bce84828501611b95565b91505092915050565b7f5472616e736665722072657475726e65642066616c7365000000000000000000600082015250565b6000611c0d601783611b12565b9150611c1882611bd7565b602082019050919050565b60006020820190508181036000830152611c3c81611c00565b9050919050565b60006040820190508181036000830152611c5d8185611b23565b9050611c6c60208301846117b2565b9392505050565b60006040820190508181036000830152611c8d8185611b23565b90508181036020830152611ca18184611b23565b90509392505050565b60006060820190508181036000830152611cc48186611b23565b9050611cd360208301856117dc565b611ce060408301846117b2565b949350505050565b7f4e487b7100000000000000000000000000000000000000000000000000000000600052603260045260246000fd5b7f4e487b7100000000000000000000000000000000000000000000000000000000600052605160045260246000fdfe4d696e74656420746f6b656e7320746f204d65726b6c6541697264726f7020636f6e7472616374a2646970667358221220ed3d045b4fa605a476c6e897f9cbe505909e042123ca59d041c44fdc843e4f5a64736f6c63430008180033",
  "linkReferences": {},
  "deployedLinkReferences": {}
}