{
  "_format": "hh-sol-artifact-1",
  "contractName": "Samoyedcoin",
  "sourceName": "contracts/SamoyedCoin.sol",
  "abi": [
    {
      "inputs": [
        {
          "internalType": "address",
          "name": "initialOwner",
          "type": "address"
        }
      ],
      "stateMutability": "nonpayable",
      "type": "constructor"
    },
    {
      "inputs": [],
      "name": "ECDSAInvalidSignature",
      "type": "error"
    },
    {
      "inputs": [
        {
          "internalType": "uint256",
          "name": "length",
          "type": "uint256"
        }
      ],
      "name": "ECDSAInvalidSignatureLength",
      "type": "error"
    },
    {
      "inputs": [
        {
          "internalType": "bytes32",
          "name": "s",
          "type": "bytes32"
        }
      ],
      "name": "ECDSAInvalidSignatureS",
      "type": "error"
    },
    {
      "inputs": [
        {
          "internalType": "address",
          "name": "spender",
          "type": "address"
        },
        {
          "internalType": "uint256",
          "name": "allowance",
          "type": "uint256"
        },
        {
          "internalType": "uint256",
          "name": "needed",
          "type": "uint256"
        }
      ],
      "name": "ERC20InsufficientAllowance",
      "type": "error"
    },
    {
      "inputs": [
        {
          "internalType": "address",
          "name": "sender",
          "type": "address"
        },
        {
          "internalType": "uint256",
          "name": "balance",
          "type": "uint256"
        },
        {
          "internalType": "uint256",
          "name": "needed",
          "type": "uint256"
        }
      ],
      "name": "ERC20InsufficientBalance",
      "type": "error"
    },
    {
      "inputs": [
        {
          "internalType": "address",
          "name": "approver",
          "type": "address"
        }
      ],
      "name": "ERC20InvalidApprover",
      "type": "error"
    },
    {
      "inputs": [
        {
          "internalType": "address",
          "name": "receiver",
          "type": "address"
        }
      ],
      "name": "ERC20InvalidReceiver",
      "type": "error"
    },
    {
      "inputs": [
        {
          "internalType": "address",
          "name": "sender",
          "type": "address"
        }
      ],
      "name": "ERC20InvalidSender",
      "type": "error"
    },
    {
      "inputs": [
        {
          "internalType": "address",
          "name": "spender",
          "type": "address"
        }
      ],
      "name": "ERC20InvalidSpender",
      "type": "error"
    },
    {
      "inputs": [
        {
          "internalType": "uint256",
          "name": "deadline",
          "type": "uint256"
        }
      ],
      "name": "ERC2612ExpiredSignature",
      "type": "error"
    },
    {
      "inputs": [
        {
          "internalType": "address",
          "name": "signer",
          "type": "address"
        },
        {
          "internalType": "address",
          "name": "owner",
          "type": "address"
        }
      ],
      "name": "ERC2612InvalidSigner",
      "type": "error"
    },
    {
      "inputs": [
        {
          "internalType": "address",
          "name": "account",
          "type": "address"
        },
        {
          "internalType": "uint256",
          "name": "currentNonce",
          "type": "uint256"
        }
      ],
      "name": "InvalidAccountNonce",
      "type": "error"
    },
    {
      "inputs": [],
      "name": "InvalidShortString",
      "type": "error"
    },
    {
      "inputs": [
        {
          "internalType": "address",
          "name": "owner",
          "type": "address"
        }
      ],
      "name": "OwnableInvalidOwner",
      "type": "error"
    },
    {
      "inputs": [
        {
          "internalType": "address",
          "name": "account",
          "type": "address"
        }
      ],
      "name": "OwnableUnauthorizedAccount",
      "type": "error"
    },
    {
      "inputs": [
        {
          "internalType": "string",
          "name": "str",
          "type": "string"
        }
      ],
      "name": "StringTooLong",
      "type": "error"
    },
    {
      "anonymous": false,
      "inputs": [
        {
          "indexed": true,
          "internalType": "address",
          "name": "owner",
          "type": "address"
        },
        {
          "indexed": true,
          "internalType": "address",
          "name": "spender",
          "type": "address"
        },
        {
          "indexed": false,
          "internalType": "uint256",
          "name": "value",
          "type": "uint256"
        }
      ],
      "name": "Approval",
      "type": "event"
    },
    {
      "anonymous": false,
      "inputs": [],
      "name": "EIP712DomainChanged",
      "type": "event"
    },
    {
      "anonymous": false,
      "inputs": [
        {
          "indexed": true,
          "internalType": "address",
          "name": "previousOwner",
          "type": "address"
        },
        {
          "indexed": true,
          "internalType": "address",
          "name": "newOwner",
          "type": "address"
        }
      ],
      "name": "OwnershipTransferred",
      "type": "event"
    },
    {
      "anonymous": false,
      "inputs": [
        {
          "indexed": true,
          "internalType": "address",
          "name": "from",
          "type": "address"
        },
        {
          "indexed": true,
          "internalType": "address",
          "name": "to",
          "type": "address"
        },
        {
          "indexed": false,
          "internalType": "uint256",
          "name": "value",
          "type": "uint256"
        }
      ],
      "name": "Transfer",
      "type": "event"
    },
    {
      "inputs": [],
      "name": "DOMAIN_SEPARATOR",
      "outputs": [
        {
          "internalType": "bytes32",
          "name": "",
          "type": "bytes32"
        }
      ],
      "stateMutability": "view",
      "type": "function"
    },
    {
      "inputs": [],
      "name": "airdropContract",
      "outputs": [
        {
          "internalType": "address",
          "name": "",
          "type": "address"
        }
      ],
      "stateMutability": "view",
      "type": "function"
    },
    {
      "inputs": [
        {
          "internalType": "address",
          "name": "owner",
          "type": "address"
        },
        {
          "internalType": "address",
          "name": "spender",
          "type": "address"
        }
      ],
      "name": "allowance",
      "outputs": [
        {
          "internalType": "uint256",
          "name": "",
          "type": "uint256"
        }
      ],
      "stateMutability": "view",
      "type": "function"
    },
    {
      "inputs": [
        {
          "internalType": "address",
          "name": "spender",
          "type": "address"
        },
        {
          "internalType": "uint256",
          "name": "value",
          "type": "uint256"
        }
      ],
      "name": "approve",
      "outputs": [
        {
          "internalType": "bool",
          "name": "",
          "type": "bool"
        }
      ],
      "stateMutability": "nonpayable",
      "type": "function"
    },
    {
      "inputs": [
        {
          "internalType": "address",
          "name": "account",
          "type": "address"
        }
      ],
      "name": "balanceOf",
      "outputs": [
        {
          "internalType": "uint256",
          "name": "",
          "type": "uint256"
        }
      ],
      "stateMutability": "view",
      "type": "function"
    },
    {
      "inputs": [],
      "name": "decimals",
      "outputs": [
        {
          "internalType": "uint8",
          "name": "",
          "type": "uint8"
        }
      ],
      "stateMutability": "view",
      "type": "function"
    },
    {
      "inputs": [],
      "name": "eip712Domain",
      "outputs": [
        {
          "internalType": "bytes1",
          "name": "fields",
          "type": "bytes1"
        },
        {
          "internalType": "string",
          "name": "name",
          "type": "string"
        },
        {
          "internalType": "string",
          "name": "version",
          "type": "string"
        },
        {
          "internalType": "uint256",
          "name": "chainId",
          "type": "uint256"
        },
        {
          "internalType": "address",
          "name": "verifyingContract",
          "type": "address"
        },
        {
          "internalType": "bytes32",
          "name": "salt",
          "type": "bytes32"
        },
        {
          "internalType": "uint256[]",
          "name": "extensions",
          "type": "uint256[]"
        }
      ],
      "stateMutability": "view",
      "type": "function"
    },
    {
      "inputs": [
        {
          "internalType": "address",
          "name": "to",
          "type": "address"
        },
        {
          "internalType": "uint256",
          "name": "amount",
          "type": "uint256"
        }
      ],
      "name": "mint",
      "outputs": [],
      "stateMutability": "nonpayable",
      "type": "function"
    },
    {
      "inputs": [],
      "name": "name",
      "outputs": [
        {
          "internalType": "string",
          "name": "",
          "type": "string"
        }
      ],
      "stateMutability": "view",
      "type": "function"
    },
    {
      "inputs": [
        {
          "internalType": "address",
          "name": "owner",
          "type": "address"
        }
      ],
      "name": "nonces",
      "outputs": [
        {
          "internalType": "uint256",
          "name": "",
          "type": "uint256"
        }
      ],
      "stateMutability": "view",
      "type": "function"
    },
    {
      "inputs": [],
      "name": "owner",
      "outputs": [
        {
          "internalType": "address",
          "name": "",
          "type": "address"
        }
      ],
      "stateMutability": "view",
      "type": "function"
    },
    {
      "inputs": [
        {
          "internalType": "address",
          "name": "owner",
          "type": "address"
        },
        {
          "internalType": "address",
          "name": "spender",
          "type": "address"
        },
        {
          "internalType": "uint256",
          "name": "value",
          "type": "uint256"
        },
        {
          "internalType": "uint256",
          "name": "deadline",
          "type": "uint256"
        },
        {
          "internalType": "uint8",
          "name": "v",
          "type": "uint8"
        },
        {
          "internalType": "bytes32",
          "name": "r",
          "type": "bytes32"
        },
        {
          "internalType": "bytes32",
          "name": "s",
          "type": "bytes32"
        }
      ],
      "name": "permit",
      "outputs": [],
      "stateMutability": "nonpayable",
      "type": "function"
    },
    {
      "inputs": [],
      "name": "renounceOwnership",
      "outputs": [],
      "stateMutability": "nonpayable",
      "type": "function"
    },
    {
      "inputs": [
        {
          "internalType": "address",
          "name": "_airdropContract",
          "type": "address"
        }
      ],
      "name": "setAirdropContract",
      "outputs": [],
      "stateMutability": "nonpayable",
      "type": "function"
    },
    {
      "inputs": [],
      "name": "symbol",
      "outputs": [
        {
          "internalType": "string",
          "name": "",
          "type": "string"
        }
      ],
      "stateMutability": "view",
      "type": "function"
    },
    {
      "inputs": [],
      "name": "totalSupply",
      "outputs": [
        {
          "internalType": "uint256",
          "name": "",
          "type": "uint256"
        }
      ],
      "stateMutability": "view",
      "type": "function"
    },
    {
      "inputs": [
        {
          "internalType": "address",
          "name": "to",
          "type": "address"
        },
        {
          "internalType": "uint256",
          "name": "value",
          "type": "uint256"
        }
      ],
      "name": "transfer",
      "outputs": [
        {
          "internalType": "bool",
          "name": "",
          "type": "bool"
        }
      ],
      "stateMutability": "nonpayable",
      "type": "function"
    },
    {
      "inputs": [
        {
          "internalType": "address",
          "name": "from",
          "type": "address"
        },
        {
          "internalType": "address",
          "name": "to",
          "type": "address"
        },
        {
          "internalType": "uint256",
          "name": "value",
          "type": "uint256"
        }
      ],
      "name": "transferFrom",
      "outputs": [
        {
          "internalType": "bool",
          "name": "",
          "type": "bool"
        }
      ],
      "stateMutability": "nonpayable",
      "type": "function"
    },
    {
      "inputs": [
        {
          "internalType": "address",
          "name": "newOwner",
          "type": "address"
        }
      ],
      "name": "transferOwnership",
      "outputs": [],
      "stateMutability": "nonpayable",
      "type": "function"
    }
  ],
  "bytecode": "0x6101606040523480156200001257600080fd5b5060405162002c2c38038062002c2c8339818101604052810190620000389190620004d3565b6040518060400160405280600b81526020017f53616d6f796564636f696e000000000000000000000000000000000000000000815250806040518060400160405280600181526020017f3100000000000000000000000000000000000000000000000000000000000000815250836040518060400160405280600b81526020017f53616d6f796564636f696e0000000000000000000000000000000000000000008152506040518060400160405280600481526020017f53414d4f0000000000000000000000000000000000000000000000000000000081525081600390816200012391906200077f565b5080600490816200013591906200077f565b505050600073ffffffffffffffffffffffffffffffffffffffff168173ffffffffffffffffffffffffffffffffffffffff1603620001ad5760006040517f1e4fbdf7000000000000000000000000000000000000000000000000000000008152600401620001a4919062000877565b60405180910390fd5b620001be816200027760201b60201c565b50620001d56006836200033d60201b90919060201c565b6101208181525050620001f36007826200033d60201b90919060201c565b6101408181525050818051906020012060e08181525050808051906020012061010081815250504660a08181525050620002326200039560201b60201c565b608081815250503073ffffffffffffffffffffffffffffffffffffffff1660c08173ffffffffffffffffffffffffffffffffffffffff16815250505050505062000a72565b6000600560009054906101000a900473ffffffffffffffffffffffffffffffffffffffff16905081600560006101000a81548173ffffffffffffffffffffffffffffffffffffffff021916908373ffffffffffffffffffffffffffffffffffffffff1602179055508173ffffffffffffffffffffffffffffffffffffffff168173ffffffffffffffffffffffffffffffffffffffff167f8be0079c531659141344cd1fd0a4f28419497f9722a3daafe3b4186f6b6457e060405160405180910390a35050565b600060208351101562000363576200035b83620003f260201b60201c565b90506200038f565b8262000375836200045f60201b60201c565b60000190816200038691906200077f565b5060ff60001b90505b92915050565b60007f8b73c3c69bb8fe3d512ecc4cf759cc79239f7b179b0ffacaa9a75d522b39400f60e051610100514630604051602001620003d7959493929190620008c0565b60405160208183030381529060405280519060200120905090565b600080829050601f815111156200044257826040517f305a27a9000000000000000000000000000000000000000000000000000000008152600401620004399190620009ac565b60405180910390fd5b805181620004509062000a02565b60001c1760001b915050919050565b6000819050919050565b600080fd5b600073ffffffffffffffffffffffffffffffffffffffff82169050919050565b60006200049b826200046e565b9050919050565b620004ad816200048e565b8114620004b957600080fd5b50565b600081519050620004cd81620004a2565b92915050565b600060208284031215620004ec57620004eb62000469565b5b6000620004fc84828501620004bc565b91505092915050565b600081519050919050565b7f4e487b7100000000000000000000000000000000000000000000000000000000600052604160045260246000fd5b7f4e487b7100000000000000000000000000000000000000000000000000000000600052602260045260246000fd5b600060028204905060018216806200058757607f821691505b6020821081036200059d576200059c6200053f565b5b50919050565b60008190508160005260206000209050919050565b60006020601f8301049050919050565b600082821b905092915050565b600060088302620006077fffffffffffffffffffffffffffffffffffffffffffffffffffffffffffffffff82620005c8565b620006138683620005c8565b95508019841693508086168417925050509392505050565b6000819050919050565b6000819050919050565b6000620006606200065a62000654846200062b565b62000635565b6200062b565b9050919050565b6000819050919050565b6200067c836200063f565b620006946200068b8262000667565b848454620005d5565b825550505050565b600090565b620006ab6200069c565b620006b881848462000671565b505050565b5b81811015620006e057620006d4600082620006a1565b600181019050620006be565b5050565b601f8211156200072f57620006f981620005a3565b6200070484620005b8565b8101602085101562000714578190505b6200072c6200072385620005b8565b830182620006bd565b50505b505050565b600082821c905092915050565b6000620007546000198460080262000734565b1980831691505092915050565b60006200076f838362000741565b9150826002028217905092915050565b6200078a8262000505565b67ffffffffffffffff811115620007a657620007a562000510565b5b620007b282546200056e565b620007bf828285620006e4565b600060209050601f831160018114620007f75760008415620007e2578287015190505b620007ee858262000761565b8655506200085e565b601f1984166200080786620005a3565b60005b8281101562000831578489015182556001820191506020850194506020810190506200080a565b868310156200085157848901516200084d601f89168262000741565b8355505b6001600288020188555050505b505050505050565b62000871816200048e565b82525050565b60006020820190506200088e600083018462000866565b92915050565b6000819050919050565b620008a98162000894565b82525050565b620008ba816200062b565b82525050565b600060a082019050620008d760008301886200089e565b620008e660208301876200089e565b620008f560408301866200089e565b620009046060830185620008af565b62000913608083018462000866565b9695505050505050565b600082825260208201905092915050565b60005b838110156200094e57808201518184015260208101905062000931565b60008484015250505050565b6000601f19601f8301169050919050565b6000620009788262000505565b6200098481856200091d565b9350620009968185602086016200092e565b620009a1816200095a565b840191505092915050565b60006020820190508181036000830152620009c881846200096b565b905092915050565b600081519050919050565b6000819050602082019050919050565b6000620009f9825162000894565b80915050919050565b600062000a0f82620009d0565b8262000a1b84620009db565b905062000a2881620009eb565b9250602082101562000a6b5762000a667fffffffffffffffffffffffffffffffffffffffffffffffffffffffffffffffff83602003600802620005c8565b831692505b5050919050565b60805160a05160c05160e05161010051610120516101405161215f62000acd6000396000610f0a01526000610ecf0152600061120a015260006111e901526000610bfb01526000610c5101526000610c7a015261215f6000f3fe608060405234801561001057600080fd5b50600436106101215760003560e01c8063715018a6116100ad578063a9059cbb11610071578063a9059cbb14610300578063ab2be72614610330578063d505accf1461034e578063dd62ed3e1461036a578063f2fde38b1461039a57610121565b8063715018a6146102665780637ecebe001461027057806384b0196e146102a05780638da5cb5b146102c457806395d89b41146102e257610121565b8063313ce567116100f4578063313ce567146101c25780633644e515146101e057806340c10f19146101fe5780636f0115381461021a57806370a082311461023657610121565b806306fdde0314610126578063095ea7b31461014457806318160ddd1461017457806323b872dd14610192575b600080fd5b61012e6103b6565b60405161013b919061191c565b60405180910390f35b61015e600480360381019061015991906119d7565b610448565b60405161016b9190611a32565b60405180910390f35b61017c61046b565b6040516101899190611a5c565b60405180910390f35b6101ac60048036038101906101a79190611a77565b610475565b6040516101b99190611a32565b60405180910390f35b6101ca6104a4565b6040516101d79190611ae6565b60405180910390f35b6101e86104ad565b6040516101f59190611b1a565b60405180910390f35b610218600480360381019061021391906119d7565b6104bc565b005b610234600480360381019061022f9190611b35565b610597565b005b610250600480360381019061024b9190611b35565b6105e3565b60405161025d9190611a5c565b60405180910390f35b61026e61062b565b005b61028a60048036038101906102859190611b35565b61063f565b6040516102979190611a5c565b60405180910390f35b6102a8610651565b6040516102bb9796959493929190611c6a565b60405180910390f35b6102cc6106fb565b6040516102d99190611cee565b60405180910390f35b6102ea610725565b6040516102f7919061191c565b60405180910390f35b61031a600480360381019061031591906119d7565b6107b7565b6040516103279190611a32565b60405180910390f35b6103386107da565b6040516103459190611cee565b60405180910390f35b61036860048036038101906103639190611d61565b610800565b005b610384600480360381019061037f9190611e03565b610948565b6040516103919190611a5c565b60405180910390f35b6103b460048036038101906103af9190611b35565b6109cf565b005b6060600380546103c590611e72565b80601f01602080910402602001604051908101604052809291908181526020018280546103f190611e72565b801561043e5780601f106104135761010080835404028352916020019161043e565b820191906000526020600020905b81548152906001019060200180831161042157829003601f168201915b5050505050905090565b600080610453610a55565b9050610460818585610a5d565b600191505092915050565b6000600254905090565b600080610480610a55565b905061048d858285610a6f565b610498858585610b03565b60019150509392505050565b60006012905090565b60006104b7610bf7565b905090565b6104c46106fb565b73ffffffffffffffffffffffffffffffffffffffff163373ffffffffffffffffffffffffffffffffffffffff16148061054a5750600960009054906101000a900473ffffffffffffffffffffffffffffffffffffffff1673ffffffffffffffffffffffffffffffffffffffff163373ffffffffffffffffffffffffffffffffffffffff16145b610589576040517f08c379a000000000000000000000000000000000000000000000000000000000815260040161058090611eef565b60405180910390fd5b6105938282610cae565b5050565b61059f610d30565b80600960006101000a81548173ffffffffffffffffffffffffffffffffffffffff021916908373ffffffffffffffffffffffffffffffffffffffff16021790555050565b60008060008373ffffffffffffffffffffffffffffffffffffffff1673ffffffffffffffffffffffffffffffffffffffff168152602001908152602001600020549050919050565b610633610d30565b61063d6000610db7565b565b600061064a82610e7d565b9050919050565b600060608060008060006060610665610ec6565b61066d610f01565b46306000801b600067ffffffffffffffff81111561068e5761068d611f0f565b5b6040519080825280602002602001820160405280156106bc5781602001602082028036833780820191505090505b507f0f00000000000000000000000000000000000000000000000000000000000000959493929190965096509650965096509650965090919293949596565b6000600560009054906101000a900473ffffffffffffffffffffffffffffffffffffffff16905090565b60606004805461073490611e72565b80601f016020809104026020016040519081016040528092919081815260200182805461076090611e72565b80156107ad5780601f10610782576101008083540402835291602001916107ad565b820191906000526020600020905b81548152906001019060200180831161079057829003601f168201915b5050505050905090565b6000806107c2610a55565b90506107cf818585610b03565b600191505092915050565b600960009054906101000a900473ffffffffffffffffffffffffffffffffffffffff1681565b8342111561084557836040517f6279130200000000000000000000000000000000000000000000000000000000815260040161083c9190611a5c565b60405180910390fd5b60007f6e71edae12b1b97f4d1f60370fef10105fa2faae0126114a169c64845d6126c98888886108748c610f3c565b8960405160200161088a96959493929190611f3e565b60405160208183030381529060405280519060200120905060006108ad82610f93565b905060006108bd82878787610fad565b90508973ffffffffffffffffffffffffffffffffffffffff168173ffffffffffffffffffffffffffffffffffffffff161461093157808a6040517f4b800e46000000000000000000000000000000000000000000000000000000008152600401610928929190611f9f565b60405180910390fd5b61093c8a8a8a610a5d565b50505050505050505050565b6000600160008473ffffffffffffffffffffffffffffffffffffffff1673ffffffffffffffffffffffffffffffffffffffff16815260200190815260200160002060008373ffffffffffffffffffffffffffffffffffffffff1673ffffffffffffffffffffffffffffffffffffffff16815260200190815260200160002054905092915050565b6109d7610d30565b600073ffffffffffffffffffffffffffffffffffffffff168173ffffffffffffffffffffffffffffffffffffffff1603610a495760006040517f1e4fbdf7000000000000000000000000000000000000000000000000000000008152600401610a409190611cee565b60405180910390fd5b610a5281610db7565b50565b600033905090565b610a6a8383836001610fdd565b505050565b6000610a7b8484610948565b90507fffffffffffffffffffffffffffffffffffffffffffffffffffffffffffffffff8114610afd5781811015610aed578281836040517ffb8f41b2000000000000000000000000000000000000000000000000000000008152600401610ae493929190611fc8565b60405180910390fd5b610afc84848484036000610fdd565b5b50505050565b600073ffffffffffffffffffffffffffffffffffffffff168373ffffffffffffffffffffffffffffffffffffffff1603610b755760006040517f96c6fd1e000000000000000000000000000000000000000000000000000000008152600401610b6c9190611cee565b60405180910390fd5b600073ffffffffffffffffffffffffffffffffffffffff168273ffffffffffffffffffffffffffffffffffffffff1603610be75760006040517fec442f05000000000000000000000000000000000000000000000000000000008152600401610bde9190611cee565b60405180910390fd5b610bf28383836111b4565b505050565b60007f000000000000000000000000000000000000000000000000000000000000000073ffffffffffffffffffffffffffffffffffffffff163073ffffffffffffffffffffffffffffffffffffffff16148015610c7357507f000000000000000000000000000000000000000000000000000000000000000046145b15610ca0577f00000000000000000000000000000000000000000000000000000000000000009050610cab565b610ca86111c4565b90505b90565b600073ffffffffffffffffffffffffffffffffffffffff168273ffffffffffffffffffffffffffffffffffffffff1603610d205760006040517fec442f05000000000000000000000000000000000000000000000000000000008152600401610d179190611cee565b60405180910390fd5b610d2c600083836111b4565b5050565b610d38610a55565b73ffffffffffffffffffffffffffffffffffffffff16610d566106fb565b73ffffffffffffffffffffffffffffffffffffffff1614610db557610d79610a55565b6040517f118cdaa7000000000000000000000000000000000000000000000000000000008152600401610dac9190611cee565b60405180910390fd5b565b6000600560009054906101000a900473ffffffffffffffffffffffffffffffffffffffff16905081600560006101000a81548173ffffffffffffffffffffffffffffffffffffffff021916908373ffffffffffffffffffffffffffffffffffffffff1602179055508173ffffffffffffffffffffffffffffffffffffffff168173ffffffffffffffffffffffffffffffffffffffff167f8be0079c531659141344cd1fd0a4f28419497f9722a3daafe3b4186f6b6457e060405160405180910390a35050565b6000600860008373ffffffffffffffffffffffffffffffffffffffff1673ffffffffffffffffffffffffffffffffffffffff168152602001908152602001600020549050919050565b6060610efc60067f000000000000000000000000000000000000000000000000000000000000000061125a90919063ffffffff16565b905090565b6060610f3760077f000000000000000000000000000000000000000000000000000000000000000061125a90919063ffffffff16565b905090565b6000600860008373ffffffffffffffffffffffffffffffffffffffff1673ffffffffffffffffffffffffffffffffffffffff1681526020019081526020016000206000815480929190600101919050559050919050565b6000610fa6610fa0610bf7565b8361130a565b9050919050565b600080600080610fbf8888888861134b565b925092509250610fcf828261143f565b829350505050949350505050565b600073ffffffffffffffffffffffffffffffffffffffff168473ffffffffffffffffffffffffffffffffffffffff160361104f5760006040517fe602df050000000000000000000000000000000000000000000000000000000081526004016110469190611cee565b60405180910390fd5b600073ffffffffffffffffffffffffffffffffffffffff168373ffffffffffffffffffffffffffffffffffffffff16036110c15760006040517f94280d620000000000000000000000000000000000000000000000000000000081526004016110b89190611cee565b60405180910390fd5b81600160008673ffffffffffffffffffffffffffffffffffffffff1673ffffffffffffffffffffffffffffffffffffffff16815260200190815260200160002060008573ffffffffffffffffffffffffffffffffffffffff1673ffffffffffffffffffffffffffffffffffffffff1681526020019081526020016000208190555080156111ae578273ffffffffffffffffffffffffffffffffffffffff168473ffffffffffffffffffffffffffffffffffffffff167f8c5be1e5ebec7d5bd14f71427d1e84f3dd0314c0f7b2291e5b200ac8c7c3b925846040516111a59190611a5c565b60405180910390a35b50505050565b6111bf8383836115a3565b505050565b60007f8b73c3c69bb8fe3d512ecc4cf759cc79239f7b179b0ffacaa9a75d522b39400f7f00000000000000000000000000000000000000000000000000000000000000007f0000000000000000000000000000000000000000000000000000000000000000463060405160200161123f959493929190611fff565b60405160208183030381529060405280519060200120905090565b606060ff60001b831461127757611270836117c8565b9050611304565b81805461128390611e72565b80601f01602080910402602001604051908101604052809291908181526020018280546112af90611e72565b80156112fc5780601f106112d1576101008083540402835291602001916112fc565b820191906000526020600020905b8154815290600101906020018083116112df57829003601f168201915b505050505090505b92915050565b60006040517f190100000000000000000000000000000000000000000000000000000000000081528360028201528260228201526042812091505092915050565b60008060007f7fffffffffffffffffffffffffffffff5d576e7357a4501ddfe92f46681b20a08460001c111561138b576000600385925092509250611435565b6000600188888888604051600081526020016040526040516113b09493929190612052565b6020604051602081039080840390855afa1580156113d2573d6000803e3d6000fd5b505050602060405103519050600073ffffffffffffffffffffffffffffffffffffffff168173ffffffffffffffffffffffffffffffffffffffff160361142657600060016000801b93509350935050611435565b8060008060001b935093509350505b9450945094915050565b6000600381111561145357611452612097565b5b82600381111561146657611465612097565b5b031561159f57600160038111156114805761147f612097565b5b82600381111561149357611492612097565b5b036114ca576040517ff645eedf00000000000000000000000000000000000000000000000000000000815260040160405180910390fd5b600260038111156114de576114dd612097565b5b8260038111156114f1576114f0612097565b5b03611536578060001c6040517ffce698f700000000000000000000000000000000000000000000000000000000815260040161152d9190611a5c565b60405180910390fd5b60038081111561154957611548612097565b5b82600381111561155c5761155b612097565b5b0361159e57806040517fd78bce0c0000000000000000000000000000000000000000000000000000000081526004016115959190611b1a565b60405180910390fd5b5b5050565b600073ffffffffffffffffffffffffffffffffffffffff168373ffffffffffffffffffffffffffffffffffffffff16036115f55780600260008282546115e991906120f5565b925050819055506116c8565b60008060008573ffffffffffffffffffffffffffffffffffffffff1673ffffffffffffffffffffffffffffffffffffffff16815260200190815260200160002054905081811015611681578381836040517fe450d38c00000000000000000000000000000000000000000000000000000000815260040161167893929190611fc8565b60405180910390fd5b8181036000808673ffffffffffffffffffffffffffffffffffffffff1673ffffffffffffffffffffffffffffffffffffffff16815260200190815260200160002081905550505b600073ffffffffffffffffffffffffffffffffffffffff168273ffffffffffffffffffffffffffffffffffffffff1603611711578060026000828254039250508190555061175e565b806000808473ffffffffffffffffffffffffffffffffffffffff1673ffffffffffffffffffffffffffffffffffffffff168152602001908152602001600020600082825401925050819055505b8173ffffffffffffffffffffffffffffffffffffffff168373ffffffffffffffffffffffffffffffffffffffff167fddf252ad1be2c89b69c2b068fc378daa952ba7f163c4a11628f55a4df523b3ef836040516117bb9190611a5c565b60405180910390a3505050565b606060006117d58361183c565b90506000602067ffffffffffffffff8111156117f4576117f3611f0f565b5b6040519080825280601f01601f1916602001820160405280156118265781602001600182028036833780820191505090505b5090508181528360208201528092505050919050565b60008060ff8360001c169050601f811115611883576040517fb3512b0c00000000000000000000000000000000000000000000000000000000815260040160405180910390fd5b80915050919050565b600081519050919050565b600082825260208201905092915050565b60005b838110156118c65780820151818401526020810190506118ab565b60008484015250505050565b6000601f19601f8301169050919050565b60006118ee8261188c565b6118f88185611897565b93506119088185602086016118a8565b611911816118d2565b840191505092915050565b6000602082019050818103600083015261193681846118e3565b905092915050565b600080fd5b600073ffffffffffffffffffffffffffffffffffffffff82169050919050565b600061196e82611943565b9050919050565b61197e81611963565b811461198957600080fd5b50565b60008135905061199b81611975565b92915050565b6000819050919050565b6119b4816119a1565b81146119bf57600080fd5b50565b6000813590506119d1816119ab565b92915050565b600080604083850312156119ee576119ed61193e565b5b60006119fc8582860161198c565b9250506020611a0d858286016119c2565b9150509250929050565b60008115159050919050565b611a2c81611a17565b82525050565b6000602082019050611a476000830184611a23565b92915050565b611a56816119a1565b82525050565b6000602082019050611a716000830184611a4d565b92915050565b600080600060608486031215611a9057611a8f61193e565b5b6000611a9e8682870161198c565b9350506020611aaf8682870161198c565b9250506040611ac0868287016119c2565b9150509250925092565b600060ff82169050919050565b611ae081611aca565b82525050565b6000602082019050611afb6000830184611ad7565b92915050565b6000819050919050565b611b1481611b01565b82525050565b6000602082019050611b2f6000830184611b0b565b92915050565b600060208284031215611b4b57611b4a61193e565b5b6000611b598482850161198c565b91505092915050565b60007fff0000000000000000000000000000000000000000000000000000000000000082169050919050565b611b9781611b62565b82525050565b611ba681611963565b82525050565b600081519050919050565b600082825260208201905092915050565b6000819050602082019050919050565b611be1816119a1565b82525050565b6000611bf38383611bd8565b60208301905092915050565b6000602082019050919050565b6000611c1782611bac565b611c218185611bb7565b9350611c2c83611bc8565b8060005b83811015611c5d578151611c448882611be7565b9750611c4f83611bff565b925050600181019050611c30565b5085935050505092915050565b600060e082019050611c7f600083018a611b8e565b8181036020830152611c9181896118e3565b90508181036040830152611ca581886118e3565b9050611cb46060830187611a4d565b611cc16080830186611b9d565b611cce60a0830185611b0b565b81810360c0830152611ce08184611c0c565b905098975050505050505050565b6000602082019050611d036000830184611b9d565b92915050565b611d1281611aca565b8114611d1d57600080fd5b50565b600081359050611d2f81611d09565b92915050565b611d3e81611b01565b8114611d4957600080fd5b50565b600081359050611d5b81611d35565b92915050565b600080600080600080600060e0888a031215611d8057611d7f61193e565b5b6000611d8e8a828b0161198c565b9750506020611d9f8a828b0161198c565b9650506040611db08a828b016119c2565b9550506060611dc18a828b016119c2565b9450506080611dd28a828b01611d20565b93505060a0611de38a828b01611d4c565b92505060c0611df48a828b01611d4c565b91505092959891949750929550565b60008060408385031215611e1a57611e1961193e565b5b6000611e288582860161198c565b9250506020611e398582860161198c565b9150509250929050565b7f4e487b7100000000000000000000000000000000000000000000000000000000600052602260045260246000fd5b60006002820490506001821680611e8a57607f821691505b602082108103611e9d57611e9c611e43565b5b50919050565b7f4e6f7420617574686f72697a656420746f206d696e7400000000000000000000600082015250565b6000611ed9601683611897565b9150611ee482611ea3565b602082019050919050565b60006020820190508181036000830152611f0881611ecc565b9050919050565b7f4e487b7100000000000000000000000000000000000000000000000000000000600052604160045260246000fd5b600060c082019050611f536000830189611b0b565b611f606020830188611b9d565b611f6d6040830187611b9d565b611f7a6060830186611a4d565b611f876080830185611a4d565b611f9460a0830184611a4d565b979650505050505050565b6000604082019050611fb46000830185611b9d565b611fc16020830184611b9d565b9392505050565b6000606082019050611fdd6000830186611b9d565b611fea6020830185611a4d565b611ff76040830184611a4d565b949350505050565b600060a0820190506120146000830188611b0b565b6120216020830187611b0b565b61202e6040830186611b0b565b61203b6060830185611a4d565b6120486080830184611b9d565b9695505050505050565b60006080820190506120676000830187611b0b565b6120746020830186611ad7565b6120816040830185611b0b565b61208e6060830184611b0b565b95945050505050565b7f4e487b7100000000000000000000000000000000000000000000000000000000600052602160045260246000fd5b7f4e487b7100000000000000000000000000000000000000000000000000000000600052601160045260246000fd5b6000612100826119a1565b915061210b836119a1565b9250828201905080821115612123576121226120c6565b5b9291505056fea2646970667358221220b2bcc0655f5d8ded4ad308e84ffd8268bf9c62ee455fd298ff322b5c4ffab2a464736f6c63430008180033",
  "linkReferences": {},
  "deployedLinkReferences": {}
}